:020000040800F2
:1000000000000220754B0008C54B0008C54B0008D6
:10001000C54B0008C54B0008C54B00080000000098
:10002000000000000000000000000000C54B0008B8
:10003000C54B000800000000C54B0008E51C000887
:10004000C54B0008C54B0008C54B0008C54B000850
:10005000C54B0008C54B0008C54B0008C54B000840
:10006000C54B0008C54B0008C54B0008C54B000830
:10007000C54B0008C54B0008C54B0008F51C00081F
:10008000C54B0008C54B0008C54B0008C54B000810
:10009000C54B0008C54B0008C54B0008C54B000800
:1000A000C54B0008C54B0008C54B0008C54B0008F0
:1000B000C54B0008C54B0008C54B0008C54B0008E0
:1000C000C54B0008C54B0008C54B0008C54B0008D0
:1000D000C54B0008C54B0008C54B0008C54B0008C0
:1000E000C54B0008C54B0008C54B0008C54B0008B0
:1000F000C54B0008C54B0008C54B0008C54B0008A0
:10010000C54B0008C54B0008C54B0008C54B00088F
:10011000C54B0008C54B0008C54B0008C54B00087F
:10012000C54B0008C54B0008C54B0008C54B00086F
:10013000C54B00080000000000000000C54B00088F
:10014000C54B0008C54B0008C54B0008C54B00084F
:10015000C54B0008C54B0008C54B0008C54B00083F
:10016000C54B0008C54B0008C54B0008C54B00082F
:10017000C54B0008C54B0008C54B00080000000037
:1001800000000000C54B0008000000000000000057
:10019000C54B00080000000000000000C54B00082F
:1001A000000000000000000000000000C54B000837
:1001B000C54B0008C54B0008C54B0008C54B0008DF
:0401C000C54B000823
:1001C800044B05481B1A062B02D9044B03B11847E8
:1001D800704700BF6F0000206C0000200000000086
:1001E80005490648091A891001EBD171491002D056
:1001F800034B03B1184770476C0000206C000020C7
:100208000000000010B5064C237843B9FFF7D8FF6B
:10021800044B13B10448AFF300800123237010BDD1
:100228006C00002000000000746E000808B5084B40
:100238001BB108480849AFF300800848036813B9A0
:10024800BDE80840CCE7064B002BF9D09847F7E704
:1002580000000000746E0008700000206C00002090
:100268000000000081F0004102E000BF83F000437D
:1002780030B54FEA41044FEA430594EA050F08BF39
:1002880090EA020F1FBF54EA000C55EA020C7FEAFD
:10029800645C7FEA655C00F0E2804FEA5454D4EB7A
:1002A8005555B8BF6D420CDD2C4480EA020281EA44
:1002B800030382EA000083EA010180EA020281EA7C
:1002C8000303362D88BF30BD11F0004F4FEA0131CE
:1002D8004FF4801C4CEA113102D0404261EB4101DD
:1002E80013F0004F4FEA03334CEA133302D0524263
:1002F80063EB430394EA050F00F0A780A4F101041F
:10030800D5F1200E0DDB02FA0EFC22FA05F2801858
:1003180041F1000103FA0EF2801843FA05F359413E
:100328000EE0A5F120050EF1200E012A03FA0EFCBD
:1003380028BF4CF0020C43FA05F3C01851EBE371E7
:1003480001F0004507D54FF0000EDCF1000C7EEB04
:1003580000006EEB0101B1F5801F1BD3B1F5001F42
:100368000CD349085FEA30004FEA3C0C04F1010461
:100378004FEA445212F5800F80F09A80BCF1004F8A
:1003880008BF5FEA500C50F1000041EB045141EA0C
:10039800050130BD5FEA4C0C404141EB010111F40D
:1003A800801FA4F10104E9D191F0000F04BF0146B8
:1003B8000020B1FA81F308BF2033A3F10B03B3F196
:1003C80020020CDA0C3208DD02F1140CC2F10C0226
:1003D80001FA0CF021FA02F10CE002F11402D8BF84
:1003E800C2F1200C01FA02F120FA0CFCDCBF41EA50
:1003F8000C019040E41AA2BF01EB0451294330BD1F
:100408006FEA04041F3C1CDA0C340EDC04F11404FB
:10041800C4F1200220FA04F001FA02F340EA0300D2
:1004280021FA04F345EA030130BDC4F10C04C4F118
:10043800200220FA02F001FA04F340EA03002946F8
:1004480030BD21FA04F0294630BD94F0000F83F442
:10045800801306BF81F480110134013D4EE77FEA25
:10046800645C18BF7FEA655C29D094EA050F08BF71
:1004780090EA020F05D054EA000C04BF1946104652
:1004880030BD91EA030F1EBF0021002030BD5FEA96
:10049800545C05D14000494128BF41F0004130BDBE
:1004A80014F580043CBF01F5801130BD01F0004512
:1004B80045F0FE4141F470014FF0000030BD7FEA85
:1004C800645C1ABF194610467FEA655C1CBF0B4680
:1004D800024650EA013406BF52EA033591EA030F97
:1004E80041F4002130BD00BF90F0000F04BF00218F
:1004F800704730B54FF4806404F132044FF00005C2
:100508004FF0000150E700BF90F0000F04BF00213A
:10051800704730B54FF4806404F1320410F00045A0
:1005280048BF40424FF000013EE700BF42004FEA9B
:10053800E2014FEA31014FEA02701FBF12F07F4318
:1005480093F07F4F81F06051704792F0000F14BF15
:1005580093F07F4F704730B54FF4607401F0004559
:1005680021F0004120E700BF50EA010208BF7047B0
:1005780030B54FF000050AE050EA010208BF7047A5
:1005880030B511F0004502D5404261EB41014FF40E
:10059800806404F132045FEA915C3FF4DCAE4FF012
:1005A80003025FEADC0C18BF03325FEADC0C18BFF9
:1005B800033202EBDC02C2F1200300FA03FC20FA4A
:1005C80002F001FA03FE40EA0E0021FA02F1144497
:1005D800C1E600BF70B54FF0FF0C4CF4E06C1CEAAC
:1005E80011541DBF1CEA135594EA0C0F95EA0C0F21
:1005F80000F0DEF82C4481EA030621EA4C5123EA94
:100608004C5350EA013518BF52EA033541F48011C2
:1006180043F4801338D0A0FB02CE4FF00005E1FB75
:1006280002E506F00042E0FB03E54FF00006E1FBBF
:1006380003569CF0000F18BF4EF0010EA4F1FF0402
:10064800B6F5007F64F5407404D25FEA4E0E6D4142
:1006580046EB060642EAC62141EA55514FEAC52053
:1006680040EA5E504FEACE2EB4F1FD0C88BFBCF5CF
:10067800E06F1ED8BEF1004F08BF5FEA500E50F180
:10068800000041EB045170BD06F0004646EA010146
:1006980040EA020081EA0301B4EB5C04C2BFD4EB78
:1006A8000C0541EA045170BD41F480114FF0000E71
:1006B800013C00F3AB8014F1360FDEBF002001F0DF
:1006C800004170BDC4F10004203C35DA0C341BDC59
:1006D80004F11404C4F1200500FA05F320FA04F02B
:1006E80001FA05F240EA020001F0004221F000415F
:1006F80010EBD37021FA04F642EB06015EEA430ED2
:1007080008BF20EAD37070BDC4F10C04C4F1200501
:1007180000FA04F320FA05F001FA04F240EA0200B4
:1007280001F0004110EBD37041F100015EEA430E85
:1007380008BF20EAD37070BDC4F1200500FA05F2A5
:100748004EEA020E20FA04F301FA05F243EA020324
:1007580021FA04F001F0004121FA04F220EA020033
:1007680000EBD3705EEA430E08BF20EAD37070BD79
:1007780094F0000F0FD101F00046400041EB010159
:1007880011F4801F08BF013CF7D041EA060195F03B
:10079800000F18BF704703F00046520043EB0303F5
:1007A80013F4801F08BF013DF7D043EA06037047E2
:1007B80094EA0C0F0CEA135518BF95EA0C0F0CD0ED
:1007C80050EA410618BF52EA4306D1D181EA030133
:1007D80001F000414FF0000070BD50EA410606BF2D
:1007E8001046194652EA430619D094EA0C0F02D172
:1007F80050EA013613D195EA0C0F05D152EA0336B7
:100808001CBF104619460AD181EA030101F00041D4
:1008180041F0FE4141F470014FF0000070BD41F01D
:10082800FE4141F4780170BD70B54FF0FF0C4CF4F7
:10083800E06C1CEA11541DBF1CEA135594EA0C0F16
:1008480095EA0C0F00F0A7F8A4EB050481EA030E63
:1008580052EA03354FEA013100F088804FEA03334A
:100868004FF0805545EA131343EA12634FEA022218
:1008780045EA111545EA10654FEA00260EF00041D9
:100888009D4208BF964244F1FD0404F5407402D22B
:100898005B084FEA3202B61A65EB03055B084FEABC
:1008A80032024FF480104FF4002CB6EB020E75EBB9
:1008B800030E22BFB61A754640EA0C005B084FEAE1
:1008C8003202B6EB020E75EB030E22BFB61A75465E
:1008D80040EA5C005B084FEA3202B6EB020E75EBA9
:1008E800030E22BFB61A754640EA9C005B084FEA21
:1008F8003202B6EB020E75EB030E22BFB61A75462E
:1009080040EADC0055EA060E18D04FEA051545EA1C
:1009180016754FEA06164FEAC30343EA52734FEAC5
:10092800C2025FEA1C1CC0D111F4801F0BD141EA3E
:1009380000014FF000004FF0004CB6E711F4801FA3
:1009480004BF01430020B4F1FD0C88BFBCF5E06F83
:100958003FF6AFAEB5EB030C04BFB6EB020C5FEA93
:10096800500C50F1000041EB045170BD0EF0004EE8
:100978004EEA113114EB5C04C2BFD4EB0C0541EA1A
:10098800045170BD41F480114FF0000E013C90E617
:1009980045EA060E8DE60CEA135594EA0C0F08BFDB
:1009A80095EA0C0F3FF43BAF94EA0C0F0AD150EADA
:1009B80001347FF434AF95EA0C0F7FF425AF10466D
:1009C80019462CE795EA0C0F06D152EA03353FF495
:1009D800FDAE1046194622E750EA410618BF52EA12
:1009E80043067FF4C5AE50EA41047FF40DAF52EAE6
:1009F80043057FF4EBAE12E74FEA4102B2F1E04360
:100A080024BFB3F5001CDCF1FE5C0DD901F0004CED
:100A18004FEAC0024CEA5070B2F1004F40EB83003D
:100A280008BF20F00100704711F0804F21D113F169
:100A38003872BCBF01F00040704741F480114FEAA2
:100A48005252C2F11802C2F1200C10FA0CF320FA2B
:100A580002F018BF40F001004FEAC1234FEAD32348
:100A680003FA0CFC40EA0C0023FA02F34FEA4303B2
:100A7800CCE77FEA625307D150EA01331EBF4FF03B
:100A8800FE4040F44000704701F0004040F0FE4056
:100A980040F40000704700BF4FF0FF3C06E000BF85
:100AA8004FF0010C02E000BF4FF0010C4DF804CDEF
:100AB8004FEA410C7FEA6C5C4FEA430C18BF7FEAAF
:100AC8006C5C1BD001B050EA410C0CBF52EA430CDD
:100AD80091EA030F02BF90EA020F0020704710F15D
:100AE800000F91EA030F58BF994208BF90422CBFEC
:100AF800D8176FEAE37040F0010070474FEA410CE5
:100B08007FEA6C5C02D150EA013C07D14FEA430C02
:100B18007FEA6C5CD6D152EA033CD3D05DF8040B73
:100B2800704700BF8446104662468C4619466346A5
:100B380000E000BF01B5FFF7B7FF002848BF10F17C
:100B4800000F01BD4DF808EDFFF7F4FF0CBF0120C1
:100B580000205DF808FB00BF4DF808EDFFF7EAFF3D
:100B680034BF012000205DF808FB00BF4DF808EDF8
:100B7800FFF7E0FF94BF012000205DF808FB00BFED
:100B88004DF808EDFFF7CEFF94BF012000205DF877
:100B980008FB00BF4DF808EDFFF7C4FF34BF012084
:100BA80000205DF808FB00BF4FEA410212F5001271
:100BB80015D211D56FF47873B3EB625212D94FEA9C
:100BC800C12343F0004343EA505311F0004F23FA86
:100BD80002F018BF404270474FF00000704750EADB
:100BE800013005D111F0004008BF6FF00040704798
:100BF8004FF00000704700BF80F0004002E000BFE7
:100C080081F0004142001FBF5FEA410392EA030FEF
:100C18007FEA226C7FEA236C6AD04FEA1262D2EB39
:100C28001363C1BFD218414048404140B8BF5B423E
:100C3800192B88BF704710F0004F40F4000020F0D7
:100C48007F4018BF404211F0004F41F4000121F0ED
:100C58007F4118BF494292EA030F3FD0A2F1010237
:100C680041FA03FC10EB0C00C3F1200301FA03F175
:100C780000F0004302D5494260EB4000B0F5000F98
:100C880013D3B0F1807F06D340084FEA310102F157
:100C98000102FE2A51D2B1F1004F40EBC25008BF09
:100CA80020F0010040EA03007047490040EB0000D3
:100CB80010F4000FA2F10102EDD1B0FA80FCACF102
:100CC800080CB2EB0C0200FA0CF0AABF00EBC25001
:100CD80052421843BCBFD0401843704792F0000FEF
:100CE80081F4000106BF80F400000132013BB5E742
:100CF8004FEA41037FEA226C18BF7FEA236C21D0B8
:100D080092EA030F04D092F0000F08BF084670471C
:100D180090EA010F1CBF0020704712F07F4F04D1EA
:100D2800400028BF40F00040704712F100723CBFFD
:100D380000F50000704700F0004343F0FE4040F427
:100D4800000070477FEA226216BF08467FEA2363E5
:100D58000146420206BF5FEA412390EA010F40F4D0
:100D6800800070474FF0000304E000BF10F000431C
:100D780048BF40425FEA000C08BF704743F0964303
:100D880001464FF000001CE050EA010208BF70471E
:100D98004FF000030AE000BF50EA010208BF7047A5
:100DA80011F0004302D5404261EB41015FEA010CBA
:100DB80002BF84460146002043F0B64308BFA3F1B2
:100DC8008053A3F50003BCFA8CF2083AA3EBC25394
:100DD80010DB01FA02FC634400FA02FCC2F12002B3
:100DE800BCF1004F20FA02F243EB020008BF20F0EA
:100DF8000100704702F1200201FA02FCC2F1200250
:100E080050EA4C0021FA02F243EB020008BF20EA44
:100E1800DC7070474FF0FF0C1CEAD0521EBF1CEA72
:100E2800D15392EA0C0F93EA0C0F6FD01A4480EA60
:100E3800010C400218BF5FEA41211ED04FF0006349
:100E480043EA501043EA5111A0FB01310CF0004075
:100E5800B1F5000F3EBF490041EAD3715B0040EA9B
:100E6800010062F17F02FD2A1DD8B3F1004F40EB6B
:100E7800C25008BF20F00100704790F0000F0CF03E
:100E8800004C08BF49024CEA502040EA51207F3A02
:100E9800C2BFD2F1FF0340EAC250704740F40000DD
:100EA8004FF00003013A5DDC12F1190FDCBF00F0CE
:100EB80000407047C2F10002410021FA02F1C2F17C
:100EC800200200FA02FC5FEA310040F1000053EA18
:100ED8004C0308BF20EADC70704792F0000F00F066
:100EE800004C02BF400010F4000F013AF9D040EA6C
:100EF8000C0093F0000F01F0004C02BF490011F400
:100F0800000F013BF9D041EA0C018FE70CEAD153FD
:100F180092EA0C0F18BF93EA0C0F0AD030F0004C7D
:100F280018BF31F0004CD8D180EA010000F0004031
:100F3800704790F0000F17BF90F0004F084691F0EF
:100F4800000F91F0004F14D092EA0C0F01D1420229
:100F58000FD193EA0C0F03D14B0218BF084608D1F2
:100F680080EA010000F0004040F0FE4040F400003C
:100F7800704740F0FE4040F4400070474FF0FF0CCF
:100F88001CEAD0521EBF1CEAD15392EA0C0F93EA16
:100F98000C0F69D0A2EB030280EA010C49024FEA68
:100FA800402037D04FF0805343EA111143EA101321
:100FB8000CF000408B4238BF5B0042F17D024FF4D9
:100FC800000C8B4224BF5B1A40EA0C00B3EB510FB4
:100FD80024BFA3EB510340EA5C00B3EB910F24BF9D
:100FE800A3EB910340EA9C00B3EBD10F24BFA3EB22
:100FF800D10340EADC001B0118BF5FEA1C1CE0D1EA
:10100800FD2A3FF650AF8B4240EBC25008BF20F09C
:10101800010070470CF0004C4CEA50207F32C2BFF0
:10102800D2F1FF0340EAC250704740F400004FF08D
:101038000003013A37E792F0000F00F0004C02BFBE
:10104800400010F4000F013AF9D040EA0C0093F088
:10105800000F01F0004C02BF490011F4000F013BE2
:10106800F9D041EA0C0195E70CEAD15392EA0C0F4A
:1010780008D142027FF47DAF93EA0C0F7FF470AF82
:10108800084676E793EA0C0F04D14B023FF44CAFC5
:1010980008466EE730F0004C18BF31F0004CCAD15A
:1010A80030F000427FF45CAF31F000437FF43CAF96
:1010B8005FE700BF4FF0FF3C06E000BF4FF0010CB8
:1010C80002E000BF4FF0010C4DF804CD4FEA40029A
:1010D8004FEA41037FEA226C18BF7FEA236C11D0E4
:1010E80001B052EA530C18BF90EA010F58BFB2EB97
:1010F800030088BFC81738BF6FEAE17018BF40F017
:10110800010070477FEA226C02D15FEA402C05D1CA
:101118007FEA236CE4D15FEA412CE1D05DF8040B4F
:10112800704700BF844608466146FFE70FB5FFF7E2
:10113800C9FF002848BF10F1000F0FBD4DF808ED9A
:10114800FFF7F4FF0CBF012000205DF808FB00BF8B
:101158004DF808EDFFF7EAFF34BF012000205DF8E5
:1011680008FB00BF4DF808EDFFF7E0FF94BF012032
:1011780000205DF808FB00BF4DF808EDFFF7D2FF2F
:1011880094BF012000205DF808FB00BF4DF808ED72
:10119800FFF7C8FF34BF012000205DF808FB00BF3F
:1011A8004FEA4002B2F1FE4F0FD34FF09E03B3EB6C
:1011B80012620DD94FEA002343F0004310F0004FAC
:1011C80023FA02F018BF404270474FF00000704702
:1011D80012F1610F01D1420205D110F0004008BFA1
:1011E8006FF0004070474FF0000070472DE9F0475E
:1011F8008CB00DF130080124F24D48F8144D002749
:101208004FF0020941462846CDF8289008940997DE
:101218000B9701F017FA414628461026CDF81C9086
:1012280001F010FA41462846079601F00BFA0A2009
:1012380001F018F849462246284601F01DFB4846A9
:1012480001F010F849463A46284601F015FB3220CD
:1012580001F008F849462246284601F00DFB4846A9
:1012680001F000F8284631463A4601F005FB2846C9
:1012780031463A4601F000FB284621463A46DFF857
:10128800488301F0F9FA0CA9112301F82E3D2246F2
:101298000A23404601F078F831462246284601F0F4
:1012A800EBFA484600F0DEFF284631463A4601F0A0
:1012B800E3FA284621463A4601F0DEFA0CA926232D
:1012C80001F82D3D22460A23404601F05DF82846E4
:1012D8003146224601F0D0FA284631463A4601F016
:1012E800CBFA28462146224601F0C6FA0CA9042367
:1012F80001F82C3D22460A23404601F045F82846CD
:101308003146224601F0B8FA284631463A4601F0FD
:10131800B3FA284621463A4601F0AEFA0CA9B123A1
:1013280001F82B3D22460A23404601F02DF82846B5
:101338003146224601F0A0FA284631463A4601F0E5
:101348009BFA28462146224601F096FA0CA94FF04E
:101358000C0A0A2301F82AAD2246404601F014F887
:1013680028463146224601F087FA284631463A4651
:1013780001F082FA28462146224601F07DFA0CA99E
:10138800142301F8293D22460A23404600F0FCFFB9
:1013980028463146224601F06FFA284631463A4639
:1013A80001F06AFA284621463A4601F065FA0CA986
:1013B800C02301F8283D22460A23404600F0E4FFF6
:1013C80028463146224601F057FA284631463A4621
:1013D80001F052FA28462146224601F04DFA0CA99E
:1013E8000A2301F827AD2246404600F0CDFF2846E3
:1013F8003146224601F040FA284631463A4601F085
:101408003BFA28462146224601F036FA0CA94FF04D
:10141800050A0A2301F826AD2246404600F0B4FF2B
:1014280028463146224601F027FA284631463A46F0
:1014380001F022FA284621463A4601F01DFA0CA985
:10144800C12301F8253D22460A23404600F09CFFAF
:1014580028463146224601F00FFA284631463A46D8
:1014680001F00AFA28462146224601F005FA0CA99D
:101478000A2301F8249D2246404600F085FF2846AD
:101488003146224601F0F8F9284631463A4601F03D
:10149800F3F9284621463A4601F0EEF90CA9C5238E
:1014A80001F8233D22460A23404600F06DFF2846F6
:1014B8003146224601F0E0F9284631463A4601F025
:1014C800DBF928462146224601F0D6F90CA94FF04F
:1014D80029090A2301F8229D2246404600F054FFBC
:1014E80028463146224601F0C7F9284631463A4691
:1014F80001F0C2F928462146224601F0BDF90CA99F
:10150800432301F8213D22460A23404600F03CFFD0
:1015180028463146224601F0AFF9284631463A4678
:1015280001F0AAF9284621463A4601F0A5F90CA986
:10153800C72301F8203D22460A23404600F024FF35
:1015480028463146224601F097F9284631463A4660
:1015580001F092F928462146224601F08DF90CA99E
:10156800402301F81F3D22460A23404600F00CFFA5
:1015780028463146224601F07FF9284631463A4648
:1015880001F07AF9284621463A4601F075F90CA986
:101598003A2301F81E3D22460A23404600F0F4FE95
:1015A80028463146224601F067F9284631463A4630
:1015B80001F062F928462146224601F05DF90CA99E
:1015C8000A2303E0000002408800002001F81DAD56
:1015D8002246404600F0D8FE28463146224601F011
:1015E8004BF9284631463A4601F046F92846214645
:1015F8003A4601F041F90CA9362301F81C3D224670
:101608000A23404600F0C0FE28463146224601F033
:1016180033F9284631463A4601F02EF92846214644
:10162800224601F029F90CA9A82301F81B3D2246FE
:101638000A23404600F0A8FE28463146224601F01B
:101648001BF9284631463A4601F016F92846214644
:101658003A4601F011F90CA9B72301F81A3D2246C0
:101668000A23404600F090FE28463146224601F003
:1016780003F9284631463A4601F0FEF82846214645
:10168800224601F0F9F80CA90A2301F8197D22462F
:10169800404600F079FE28463146224601F0ECF833
:1016A800284631463A4601F0E7F8284621463A46A8
:1016B80001F0E2F80CA9F22301F8183D22460A23AA
:1016C800404600F061FE28463146224601F0D4F833
:1016D800284631463A4601F0CFF8284621462246A8
:1016E80001F0CAF80CA90A2301F8174D2246404612
:1016F80000F04AFE28463146224601F0BDF8284649
:1017080031463A4601F0B8F8284621463A4601F0F3
:10171800B3F80CA90A2301F8169D2246404600F0AA
:1017280033FE28463146224601F0A6F828463146BF
:101738003A4601F0A1F8284621463A4601F09CF8BD
:101748000CA92C2301F8153D22460A23404600F037
:101758001BFE28463146224601F08EF80CB0BDE843
:10176800F08700BF2DE9F047934C944E84B0904623
:10177800824689462046102100221F4601F07CF847
:1017880020460121002201F077F804A92A2301F854
:101798000B3D30460A23012200F0F6FD20461021B9
:1017A800012201F069F820461021002201F064F8B6
:1017B800012120460A4601F05FF804A900250A2302
:1017C80001F80A5D3046012200F0DEFD20461021B6
:1017D800012201F051F820462A46102101F04CF868
:1017E800012120460A4601F047F804A90AF1010A36
:1017F8000A2301F809AD3046012200F0C5FD204654
:101808001021012201F038F820462A46102101F063
:1018180033F8012120460A4601F02EF804A90A23CC
:1018280001F8085D3046012200F0AEFD2046102187
:10183800012201F021F820462A46102101F01CF867
:10184800012120460A4601F017F804A9A02301F84F
:10185800073D30460A23012200F096FD204610215C
:10186800012201F009F820462A46102101F004F867
:1018780020462A46012100F0FFFF04A92B2301F886
:10188800063D30460A23012200F07EFD2046102145
:10189800012200F0F1FF20462A46102100F0ECFF5B
:1018A800012120460A4600F0E7FF04A90A2301F8AF
:1018B800055D3046012200F067FD20461021012217
:1018C80000F0DAFF20462A46102100F0D5FF01215A
:1018D80020460A4600F0D0FF04A909F102090A23AC
:1018E80001F8049D3046012200F04EFD20461021EB
:1018F800012200F0C1FF20462A46102100F0BCFF5B
:10190800012120460A4600F0B7FF04A90A2301F87E
:10191800035D3046012200F037FD204610210122E8
:1019280000F0AAFF20462A46102100F0A5FF012159
:1019380020460A4600F0A0FF04A9812301F8023DD1
:1019480030460A23012200F01FFD20461021012203
:1019580000F092FF20462A46102100F08DFF204615
:101968002A46012100F088FF04A92C2301F8013D33
:1019780030460A23012200F007FD204610210122EB
:1019880000F07AFF20462A46102100F075FF012159
:1019980020460A4600F070FF7A004146322392B290
:1019A800304600F0F1FC20461021012200F064FFCF
:1019B80004B0BDE8F08700BF0000024088000020A6
:1019C80008B5072000F05CFF00210A466FF00B0005
:1019D80000F068FF00210A466FF00A0000F062FF7D
:1019E80000210A466FF0090000F05CFF00210A465A
:1019F8006FF0040000F056FF00210A466FF0030064
:101A080000F050FF00210A466FF0010000F04AFF85
:101A180000210A464FF0FF30BDE8084000F042BF01
:101A2800304B02689A4200D070472DE9F04786B0E3
:101A3800002603F5003300961A6C2B4D42F48042C1
:101A48001A641B6C039603F48043022700934FF03B
:101A58000308072301A904462448009A019702971E
:101A680005934FF0050ACDF8108000F0EBFD042334
:101A780001A91E48019302974FF480690396CDF897
:101A88001080CDF814A000F0DDFD01A918480297D8
:101A98000396CDF81080CDF814A0CDF80490402717
:101AA80000F0D0FDDFF84CE0C5F810904FF400616D
:101AB8004FF400524FF4803328466E60EE60EE61BA
:101AC8006E62C5F800E0AF606961AA612B6200F040
:101AD80057FF20B9A564AC6306B0BDE8F08700F0F5
:101AE800FBF8F7E700380040E0000020000802405B
:101AF800000402407060024070B594B00022294989
:101B08000092086C284B40F080500864096C01F082
:101B18008051009100990192196841F4404119607F
:101B28001B680E9203F440430224019301251021FF
:101B38000822FA2307A8019E07940D941194129481
:101B480013940A950B910F92109300F06DF900B160
:101B5800FEE701F051F9034600B1FEE74FF4805269
:101B68000F264FF4A05502A805210394049302966A
:101B78000595069201F084F8044600B1FEE701F0ED
:101B880035F90A4BA3FB0030800900F0CDFE042094
:101B980000F0E4FE4FF0FF302146224600F082FEBE
:101BA80014B070BD0038024000700040D34D621080
:101BB80080B58AB00024424D00F02CFBFFF79CFF53
:101BC80001942B6B3F4843F004032B632B6B03F00A
:101BD80004030193019B02942B6B43F080032B6356
:101BE8002B6B03F080030293029B03942B6B43F04F
:101BF80001032B632B6B03F001030393039B0494F2
:101C08002B6B43F002032B632B6B03F0020304934B
:101C180022462021049B00F02FFE4FF400522A4B4D
:101C28002A48059205A9069302270C26079400F076
:101C380009FD0322072305A922480892059609935E
:101C480001260794069700F0FDFC202305A91D48EE
:101C5800059307940894069600F0F4FC05942B6B02
:101C680043F400132B632B6B03F400132146224625
:101C780005930F20059B00F015FE0F2000F048FE8D
:101C8800134BDFF850E01F614FF482754FF4007179
:101C98000A2218469C60DC605E61DC611C625C6242
:101CA8009C62C3F800E05D609961DA6200F016FB9F
:101CB80000B1FEE702F032FF02F030FFFAE700BFA2
:101CC80000380240000002400000211000080240D5
:101CD8008800002000380040FEE700BF08B500F08B
:101CE800B3FABDE8084000F047BE00BF014800F065
:101CF800F3BE00BFE00000201049114BD1F8882046
:101D080042F4700210B4C1F888201A680D4C002003
:101D180042F001021A6098601A6822F0847222F474
:101D280080321A605C601A684FF0006422F48022E6
:101D38001A60D8608C605DF8044B704700ED00E0D5
:101D480000380240103000243449886800F00C0044
:101D5800082830B409D00C2834D0314B314A30BC73
:101D680004280CBF1846104670474A684D6802F0B0
:101D78003F0447F6C0734A68680293FAA3F347F62C
:101D8800C07000EA02004ABF2549264AB1FBF4F2B6
:101D98002249B3FA83F320FA03F058BFB2FBF4F2F6
:101DA80002FB00F34FF44032486892FAA2F200F4C2
:101DB8004030B2FA82F2D0400130400030BCB3FB70
:101DC800F0F070474A684D6802F03F0447F6C07368
:101DD8004A68690293FAA3F347F6C07000EA020062
:101DE8004ABF0F490F4AB1FBF4F20C49B3FA83F327
:101DF80020FA03F058BFB2FBF4F202FB00F34FF0F5
:101E0800E042486892FAA2F200F0E040B2FA82F2A8
:101E180030BCD040B3FBF0F0704700BF0038024040
:101E280000127A000024F4002DE9F0430368DA0771
:101E380083B0044636D5A9498A6802F00C02042A00
:101E480000F0A4808A6802F00C02082A00F09A8048
:101E5800A2498A6802F00C020C2A00F02481636807
:101E6800B3F5803F00F00881B3F5A02F00F0898119
:101E78009A4D2A6822F480322A602A6822F4802245
:101E88002A60002B40F0FD8000F0E6F9064605E0E8
:101E980000F0E2F9801B642800F201812B689903A5
:101EA800F6D423689A0733D58C4A916811F00C0F41
:101EB80077D0916801F00C0108296FD087498A68AA
:101EC80002F00C020C2A00F08081E368002B00F07D
:101ED800EF80834B814D01221A6000F0BDF9064660
:101EE80005E000F0B9F9801B022800F2D8802B68C1
:101EF8007A4A9807F5D51168F82090FAA0F0236976
:101F0800B0FA80F021F0F80183400B431360236896
:101F18001A0714D56369002B4ED0724B6F4D0122FE
:101F28001A6000F099F9064605E000F095F9801B63
:101F3800022800F2B4806B6F9F07F6D52368590713
:101F48004AD4A269D2B1654B996801F00C010829FD
:101F58002ED0022A644A4FF00001116000F0B980C7
:101F68001C4600F079F9054605E000F075F9401BBC
:101F7800022800F2948023689B01F6D4002003B065
:101F8800BDE8F0834A6857027FF562AF534A12688A
:101F9800950387D56268002A84D109E05268570200
:101FA8008CD44E4A1268950755D5E268012A52D05A
:101FB800012003B0BDE8F0834A4A484D136000F0A1
:101FC8004BF9064604E000F047F9801B022866D862
:101FD8006B6F9807F7D4B1E7404B444D002201924C
:101FE8001A6C42F080521A641B6C03F08053019300
:101FF800019B2B6843F480732B6000F02DF9064693
:1020080004E000F029F9801B022848D82B68DA057B
:10201800F7D5A368012B00F0DD80052B00F0BB800D
:102028002E4D2A6F22F001022A672A6F22F004023D
:102038002A67002B40F0B88000F00EF941F288368C
:10204800074604E000F008F9C01BB04227D82B6F00
:102058009807F7D475E7214DF820296890FAA0F081
:102068002269B0FA80F021F0F80182400A432A6020
:102078001A077FF564AF4DE7184A136843F48033B5
:10208800136000F0E9F8154D064604E000F0E4F8A6
:10209800801B642803D82B689803F7D501E7032031
:1020A80003B0BDE8F0834A6856027FF5D8AE6DE705
:1020B8000B4A0A4D136000F0CFF8064604E000F022
:1020C800CBF8801B0228EAD82B689907F7D4236835
:1020D8001EE71D4600F0C0F806460EE00038024034
:1020E80000004742800E47426000474200700040AF
:1020F80000F0B2F8801B0228D1D82B68384A990121
:10210800F6D447F6C07E9EFAAEFE4FF44037BEFACC
:102118008EFE97FAA7F74FF07065B7FA87F795FA2A
:10212800A5F54FF0E049B5FA85F599FAA9F9A36A3A
:10213800666AD4F82080D4F81CC0E06A216BB9FA2A
:1021480089F45B0806FA0EF6013B48EA0C0E4EEAE3
:102158000606BB40A8403343A140034321480B4334
:10216800012153600160144600F076F8054604E04A
:1021780000F072F8401B022891D823689A01F7D51D
:10218800FCE6174B1A6842F480221A601A6842F477
:1021980080321A6075E7124B1A6F42F004021A6710
:1021A8001A6F42F001021A6700F056F80C4D074604
:1021B80041F2883605E000F04FF8C01BB0423FF608
:1021C8006EAF2B6F9B07F6D5BBE64A6856023FF504
:1021D8007CAEE6E6024A136F43F001031367E3E7B8
:1021E8000038024060004742084B094A1B6810B596
:1021F800A2FB03230446980900F096FB21464FF002
:10220800FF30002200F04EFB002010BD000000202F
:10221800D34D621008B50B4B1A6842F400721A606D
:102228001A6842F480621A601A6842F480721A606E
:10223800032000F025FB0020FFF7D6FFFFF7C0FBC7
:10224800002008BD003C0240024A136801331360B5
:10225800704700BF40010020014B1868704700BF5D
:102268004001002030B583B00190FFF7F5FF019CD5
:10227800631C054618BF0134FFF7EEFF401BA04260
:10228800FAD303B030BD00BF036841685A68B1F59E
:10229800827F22F0E0025A6014D0826AB2F5005FB1
:1022A80008D119684DF6FF720A401A601A6842F49C
:1022B80000521A600122002380F8512080F8503023
:1022C800032070478268B2F5004F02D0B2F5806FE4
:1022D800E3D11A6822F040021A60DEE7002850D0E5
:1022E8002DE9F04190F85130002282B0804603F089
:1022F800FF018262002B3DD01346D8F82020D8F881
:1023080004700192D8F80820D8F80C60D8F810505A
:10231800D8F81440D8F81C10D8F818E0D8F80000FD
:1023280017433E4335432C43019A21430EF400766C
:1023380002250A4388F85150324301681A434FEA8C
:102348001E4ED8F824300EF0040E4EEA030321F096
:102358004001016002604360C369002223F4006306
:10236800C36101211046C8F8542088F8511002B002
:10237800BDE8F08180F85010FFF752FBD8F82830FC
:10238800BBE70120704700BF2DE9F041044690F8F3
:102398005000012882B003D1022002B0BDE8F081CC
:1023A8001E46012384F850300D461746FFF754FFA8
:1023B800804694F85100C0B2012809D002200122B9
:1023C800002384F8512084F8503002B0BDE8F08131
:1023D800002DF4D0002FF2D0A26825630023B2F5B7
:1023E800004F4FF00301226884F851106365E786B7
:1023F800E387A363A3876364236408BF1368A7867E
:1024080004BF43F4804313601368590603D4136868
:1024180043F040031360E368B3F5006F63687DD051
:10242800002B70D0E38E9BB2012B6CD0731C2AD08A
:10243800002E3CD0E38E9BB26BB193689F074AD4C1
:10244800FFF70AFFC8EB0000864265D9E38E2268D1
:102458009BB2002BF1D1731C46D193689F07FCD522
:10246800701C40F0AF8093681906FCD4A3682BB9A0
:102478000193D368019393680193019B606D0030C9
:1024880018BF01209BE7E38E9BB2002BE3D0936833
:102498009807F8D515F8013B1373E38E2268013BC2
:1024A8009BB2E386E38E9BB2002BF0D1D3E7E38E99
:1024B8009BB2002BCFD0936899072DD515F8013B17
:1024C8001373E38E2268013B9BB2E386E38E9BB2D3
:1024D800002BF0D1BFE715F8013B1373E38E226898
:1024E800013B9BB2E386A5E793689D07B8D4002E0D
:1024F80000F09380FFF7B0FEC8EB0000864240F280
:102508008C802268A7E715F8013B1373E38E2268D5
:10251800013B9BB2E38689E7032050E7002B49D0B3
:10252800E38E9BB2012B45D0731C13D036B3E38ED8
:102538009BB2002B8FD093689F0733D4FFF78CFE94
:10254800C8EB00008642E7D9E38E22689BB2002BD5
:10255800F1D180E7E38E9BB2002B3FF47CAF936808
:102568009807F7D535F8023BD360E38E013B9BB261
:10257800E386E38E9BB2002BF1D16CE7E38E9BB22E
:10258800002B3FF468AF93689907C5D535F8023B2F
:10259800D360E38E013B9BB2E386E38E9BB2002BB4
:1025A800F1D158E735F8023BD360E38E013B9BB28B
:1025B800E386BCE735F8023BD360E38E013B9BB270
:1025C800E386B1E793681B067FF550AF3EB1FFF78E
:1025D80043FEC8EB0000864222683FF641AF5368CD
:1025E800616823F0E003B1F5827F53601DD0A36AD0
:1025F800B3F5005F08D111684DF6FF730B40136007
:10260800136843F400531360012084F85100636D8C
:102618002022134363656265D1E62046FFF734FE46
:1026280000287FF479AF22681AE7A368B3F5004F52
:1026380002D0B3F5806FDAD1136823F0400313603A
:10264800D5E700BF2DE9F04F85B00F68DFF820E22D
:10265800DFF820C27F4E0197002303E00133102BDF
:1026680000F09B800122019C9A4014409442F5D1CD
:102678004D6825F0100ABAF1020F00F091804FEA78
:1026880043090322D0F800B002FA09F2D24305F058
:10269800030802EA0B0B08FA09F80AF1FF3A4BEAB9
:1026A8000808BAF1010FC0F8008040F2A280D0F803
:1026B8000C808F6802EA080207FA09F842EA080261
:1026C800C260EA00CAD54FF0000ACDF80CA0DEF8C7
:1026D800442042F48042CEF84420DEF8448023F0BF
:1026E800030202F1804208F4804802F59C32CDF8DA
:1026F8000C8003F00308DDF80C90D2F808B04FEA1C
:1027080088084FF00F0909FA08F960452BEA09090A
:102718001CD0514FB84200F08480504FB84200F0AE
:1027280085804F4FB84200F086804E4FB84200F087
:1027380087804D4FB84200F088804C4FB8420CBF9C
:102748004FF0060A4FF0070A0AFA08FA4AEA090A95
:10275800C2F808A032686FEA0408EF034CBF2243AE
:1027680008EA020232607268AF034CBF224308EAEB
:1027780002027260B268EF024CBF224308EA02020A
:10278800B260F268AD0203F1010354BF08EA020423
:102798001443102BF4607FF465AF05B0BDE8F08FEB
:1027A8004FEAD30900EB890903F00708D9F820207C
:1027B8004FEA88084FF00F0A0AFA08FA22EA0A0ACA
:1027C8000A6902FA08F24AEA0202C9F820204FEA26
:1027D80043090322D0F800A002FA09F2D24305F017
:1027E800030802EA0A0A08FA09F84AEA0808C0F8D7
:1027F8000080D0F80880CF6802EA080A07FA09F8CA
:102808004AEA0808C0F80880D0F804A0C5F3001800
:102818002AEA040A08FA03F84AEA0808C0F8048011
:1028280045E74FF0010A0AFA08FA8FE74FF0020A63
:102838000AFA08FA8AE74FF0030A0AFA08FA85E75B
:102848004FF0040A0AFA08FA80E74FF0050A0AFA74
:1028580008FA7BE7003C01400004024000080240FF
:10286800000C024000100240001402400018024010
:10287800003802400000024002B909048161704733
:10288800074AD1684FF6FF030B4043F0BF6300F0DF
:10289800070043F4003343EA0023D360704700BFC6
:1028A80000ED00E0184BDB68C3F3022330B4C3F13A
:1028B8000705042D03F1040428BF0425062C17D9A5
:1028C800033B01249C40013C22400124AC40013CD4
:1028D80021409940002842EA01020CDB00F16040E7
:1028E80000F561401201D2B280F8002330BC704775
:1028F80000221346E9E7054B00F00F0012010344DC
:10290800D2B21A7630BC704700ED00E0FCEC00E073
:1029180000F01F0101234009024A8B4042F8203091
:10292800704700BF00E100E00138B0F1807F0ED2AF
:10293800084B10B4084C5860F02084F8230000229B
:10294800072110469A6019605DF8044B7047012012
:10295800704700BF10E000E000ED00E0044A136893
:1029680004280CBF43F0040323F0040313607047EA
:1029780010E000E0704700BF08B5FFF7FBFF08BD97
:102988002DE9F044074682B0FFF766FC002F00F0FF
:10299800818002223B6887F835201A68002122F0DE
:1029A800010287F8341004461A6005E0FFF754FC6A
:1029B800001B052844D83B681A68D107F6D47A6901
:1029C80001927E68BA68FD683C69D7F818C0396A10
:1029D800D3F800A0DFF8FCE0786A16433543019A83
:1029E8002C432243FC6942EA0C02224311430AEABF
:1029F8000E0E042841EA0E012BD01960596921F006
:102A080007010143DAB2314C5961103AA4FB0212B2
:102A180012092F4823F47F73815CF96523F00303BF
:102A2800032A88BF04333F228A4001240021BB6562
:102A380008469A60796587F8354002B0BDE8F084A9
:102A48000323202218467A6587F8353002B0BDE89E
:102A5800F084F86A3A6BBC6A0243114319605A69F8
:102A680044F0040122F0070211430028CAD0BCF147
:102A7800000F13D0BCF5005F1AD0022C03D9032C29
:102A8800C0D1C201BED5012340227A65184687F815
:102A98003530D2E7012002B0BDE8F084012C03D024
:102AA800EFD3022CAED1ECE7B0F1C07FAAD1EAE7B0
:102AB800032CA7D801A252F824F000BF8F2A0008DF
:102AC8008B2A00088F2A0008B12A0008ABAAAAAAF4
:102AD800A06E00083F8010F0F0B583B00023876D2A
:102AE8000193C36D3D68624908229A402A42044610
:102AF8000E6803D001680868400776D45D4A9A409A
:102B08002A4203D021684969080668D45A4A9A407B
:102B18002A4203D02168096889075AD410229A40AA
:102B28002A4203D02168086800073FD420229A402F
:102B38002A4203D021680868C00625D4636D0BB308
:102B4800636DDA071AD50523216884F835300B68D8
:102B58004A4A23F00103A2FB06020B60920A02E034
:102B68000B68DB0704D5019B01339A420193F7D226
:102B78000022012384F8342084F83530E36C0BB14B
:102B88002046984703B0F0BDBA6094F83520052A6E
:102B98003BD00B6813F4802F0B6854D019035FD512
:102BA800E36B002BCAD020469847C7E7BA600A688B
:102BB80012F4802F0A6822D1D20503D40A6822F0C1
:102BC80008020A60226C002AB0D020469047E36DC4
:102BD800ACE7BA60626D42F0040262659EE7BA60D3
:102BE800626D42F00202626590E7086820F0040016
:102BF8000860BA60626D42F0010262657EE7110307
:102C0800E0D5A26C002AE0D190E70A68206C22F097
:102C180016020A604A6922F080024A6120B30A68F3
:102C280022F008020A603F22216D02FA03F3002015
:102C38000122BB6084F8340084F835200029A1D033
:102C4800204688479EE713F48073A9D10A680120BB
:102C580022F010020A6084F8343084F835009FE7C7
:102C6800636C002B9FD169E7A26C002AD7D1DAE701
:102C7800000000200100800004008000B5814E1B88
:102C8800564A136803F00F038B422DE9F0410C46B6
:102C9800064609D2CBB21370136803F00F038B42B8
:102CA80002D00120BDE8F08133689A0706D54C4868
:102CB800B268816821F0F0010A438260DF0726D5F7
:102CC8007368012B00F084809A1E012A444A126816
:102CD80078D99107E5D5424DAA6822F0030213433B
:102CE800AB60FFF7B9FA7368012B074641F28838E1
:102CF8004CD0022B55D0032B05D15DE0FFF7ACFA81
:102D0800C01B404561D8AB6813F00C0FF6D1334AAD
:102D1800136803F00F039C4206D2E3B213701368E2
:102D280003F00F03A342BCD133685A0706D52C48D9
:102D3800F268816821F4E0510A4382601B0707D5D5
:102D4800274A3169936823F4604343EAC1039360D7
:102D5800FEF7FAFF224B0146F0229B6892FAA2F294
:102D680003F0F003B2FA82F21E4D1F4CD34000204C
:102D7800EB5C21FA03F32360FFF736FA0020BDE885
:102D8800F081FFF769FAC01B40451ED8AB6803F015
:102D98000C03042BF5D1BAE7FFF75EFAC01B4045D8
:102DA80013D8AB6803F00C03082BF5D1AFE7FFF796
:102DB80053FAC01B404508D8AB6803F00C030C2B32
:102DC800F5D1A4E7900186D46BE70320BDE8F08134
:102DD800034A126895033FF57EAF62E7003C024064
:102DE80000380240906E000800000020014B18686F
:102DF800704700BF0000002030B583B0234B00228D
:102E080001921A6C42F080521A641B6C03F08053D2
:102E18000193019B4FF4803393FAA3F3B3FA83F33E
:102E280003F1845303F560339B0001221A60FFF716
:102E380013FA174C054605E0FFF70EFA401BB0F5EC
:102E48007A7F20D86368DA03F6D54FF4003393FA13
:102E5800A3F3B3FA83F303F1845303F560339B00C0
:102E680001221A60FFF7F8F9094C054605E0FFF75B
:102E7800F3F9401BB0F57A7F05D863689B03F6D554
:102E8800002003B030BD032003B030BD003802403D
:102E980000700040D0ED017AD0ED006A90ED027A22
:102EA80067EEA77AE6EEA67AE7EE077AB1EEE77A5A
:102EB800B4EE477AF1EE10FA02D117EE100A704715
:102EC80008B517EE900A01F031FF08BD10B52DEDD9
:102ED800068BDDED088A09EE903A0AEE901A0AEEA2
:102EE800102A00214022044603F0B8FF38EEE99A80
:102EF800B7EE008AB5EE409AF1EE10FA84ED008A3A
:102F080084ED058A84ED0A8A84ED0F8A25D0DFEDE9
:102F1800157A6AEEA77A17EE900A01F0DFFEB8EE8E
:102F2800007A28EE877A06EE900A78EEA97A88EE7B
:102F3800268A0D4BE36227EE297AF1EE677A87EE4F
:102F4800097AC7EE897A28EE0AAA84ED058A84ED03
:102F580000AA84ED0E7AC4ED0A7ABDEC068B2046F1
:102F680010BD00BFDB0F4940000080BF70B52DEDDC
:102F7800108B9EB0402601AD044685E80E000EA8D1
:102F880032460021DDED338A9DED32BADDED34AAFB
:102F98009FED988A03F062FF9DED037ADDED016AEB
:102FA800DDED027A3AEEC77A7BEE666A78EEE77A6A
:102FB80028EE476AF0EE473AF0EE664AD7EEC83A8E
:102FC80008A8E7EE884AA6EE886A23EEE74A24EEC8
:102FD800E65A66EE475AA6EE864AA7EE235AE7EE69
:102FE800A45ACDED083ACDED0A4A8DED0D4A8DED86
:102FF8000C5ACDED0B5A8DED077A8DED096ACDEDA2
:10300800056ACDED067AFFF745FF07EE900AF7EE61
:1030180000CA0BA88CEEA7AAFFF73CFF07EE900AA0
:1030280005A8CCEEA79AFFF735FF3246002107EE38
:10303800900ACCEEA77A2046DDED05DADDED06BA7A
:103048009DED0A6ADDED0D6A9DED077ADDED08EA72
:103058009DED09DA9DED0BEA9DED0CCA67EEABBA62
:1030680067EEADDA27EE879A2AEE0DDA29EE8CCADA
:103078006AEE2EEA29EE8EEA2AEE06AA69EEA69AEA
:1030880003F0ECFEB1EE687A9DED150ADDED117ADC
:103098009DED196A9DED1A2ADDED1B2A9DED1C3A5E
:1030A80067EE2B6AB0EE6D4AABEE884A20466CEEAE
:1030B800073AB1EE4BBA67EE001A6DEE074AB0EE6A
:1030C800667AEEEE0B3AADEE8B7AF0EE6E8AF0EEA3
:1030D8004E0A2EEE885A6EEE085A2DEE88FAA9EEA0
:1030E800084AEDEE088AECEE080AF1EE6A6AB0EEDC
:1030F800671AEBEE271AA0EE081A67EE887A7DEEBB
:1031080005FAEEEE8B4AADEE085AA6EE897A3CEE49
:1031180025DAECEE085AB0EE63CA7BEE8F3AABEED6
:1031280088FAEAEE088AE9EE880AEAEE08FAA9EED1
:1031380088DAE9EE083AB0EE44BA30EE274AE0EE13
:10314800087AE6EE861AA6EE081AEAEE264AA6EEEF
:10315800A9CAA6EE084A3AEE055A79EEA55AF0EE43
:10316800476A39EE0F7AE2EE088AE2EE880AA3EEA1
:1031780008BAE2EE08FAA2EE085AA2EE88DAE2EEFF
:10318800885AE3EE083AA3EE087A76EE277A31EE0B
:10319800081A34EE084A71EEAC1A72EE244A32EE7E
:1031A8008C6A73EE266A37EE888AC4ED008AC4ED0D
:1031B8000F1AC4ED010A84ED02BA84ED031AC4EDB6
:1031C80004FA84ED085AC4ED0C4A84ED05DAC4ED1E
:1031D800095A84ED0D6AC4ED0E6AC4ED063A84ED11
:1031E8000A7A84ED074A84ED0B8A1EB0BDEC108B79
:1031F80070BD00BF00000000002210B44FF07E54E4
:10320800C46301604161816242608260C2600261A0
:103218008261C26102624262C26202634263826385
:103228005DF8044B704700BFD0ED017AFDEEE77AF8
:1032380017EE900A704700BFD0ED097AFDEEE77AE5
:1032480017EE900A704700BF70B52DED108B0E4633
:10325800154686B000214022044603F0FFFD96ED96
:103268000E4AD6ED0F2A96ED00DA95ED00EAD6ED76
:1032780001CAD6ED03AAD5ED04DA95ED0CAA96EDB0
:103288000B1AD5ED0E1AD6ED045AD5ED014A96ED76
:10329800056A96ED067A96ED07CA95ED055AD5EDBD
:1032A800096AD5ED0D7A96ED02BAD5ED08BAD6EDD4
:1032B800088AD5ED029A96ED098AD6ED0A0A95EDA7
:1032C800069A95ED0A0A96ED0C3A95ED032AD6ED85
:1032D8000D3A8DED014ACDED022A95ED0B4AD5ED5B
:1032E800072AD5ED0FEA65EEA4FACDED03EA24EE40
:1032F80086FA64EE87EA64EE8C4AEDEE0EFA204612
:10330800AEEE2CFAEEEE0BEAEEEE2A4ACDED04FA1A
:103318008DED05FA26EE05EAF0EE6EFAB0EE64FAE7
:1033280065EE85EA67EE054A2CEE055AEDEE2DEAC4
:10333800ACEEADEAEBEE2D4AAAEEAD5A65EEA6DA92
:1033480065EEA75AEDEE2BDAEDEE0A5A26EE26DAEE
:1033580026EE276AACEEABDAACEE8A6A67EE26CACE
:103368006CEE266A27EE277A6CEE277AEAEEAB6ACD
:10337800ABEE0A7AEAEE8A7AEBEE2BCAA1EE095A8C
:103388009DED04AADDED05AAE8EE89EAA8EE09EAB2
:10339800E0EE894AA9EE81FAE8EEA15AA8EE216A80
:1033A800E1EE006AA0EEA17AE1EE217AA8EEA9AAE0
:1033B800DDED011A9DED021AE9EE88AAE9EEA0FA00
:1033C800E8EE80DAA8EE00DAE0EE80CAE3EE22EA60
:1033D800A3EEA2EAE1EEA24AA1EE225ADDED032A0B
:1033E800C4ED04EAA3EE02AAE2EE23AAE2EE21FA71
:1033F800A2EE01FAE3EE04DAE3EE225AA3EE84DA4F
:10340800A3EEA26AE1EE84CAE1EE046AA1EEA27A12
:10341800E1EE227A84ED00AAC4ED01AAC4ED02FA15
:1034280084ED03FA84ED05EAC4ED064A84ED075AF3
:10343800C4ED08DAC4ED0C5A84ED09DA84ED0D6A9E
:10344800C4ED0ACAC4ED0B6A84ED0E7AC4ED0F7A96
:1034580006B0BDEC108B70BD2DE9F04F2DED108B33
:10346800ADF58E3DF5B00021402238A84FF07E56CC
:1034780003F0F4FC0021402248A80DF53B5B3D9683
:1034880042964796389603F0E9FC0023E44A0092F6
:103498005846019302934FF07A51E24B4D964FF004
:1034A8007D5252965796489610ADFFF70FFD594634
:1034B80038AA10A8FFF7C8FE0FCD38AC0FC40FCD3F
:1034C8000FC40FCD0FC495E80F0084E80F0021A8A2
:1034D80001F014FB23A801F011FB25A801F00EFB55
:1034E80027A801F00BFB31465846FFF785FE10AEC2
:1034F80010A848A95A46FFF7A7FE0FCE48AC0FC43C
:103508000FCE0FC40FCE0FC495E80F0084E80F004C
:10351800259B9FEDC57A5E1D07EE906AF8EEE77A67
:103528002596C7EE877A4FF0000A9FEDC07A67EEBE
:10353800877A17EE900AFCF7F9FF01F041FBCDE915
:1035480004012698FCF7E0FFB1A3D3E90023FDF7B7
:103558006BF9B1A3D3E90023FDF73CF8804689460F
:1035680001F02EFB04460D464046494601F06CFB2F
:10357800804630468946FCF7C7FFA5A3D3E9002358
:10358800FDF752F9A4A3D3E90023FDF723F801F0CE
:103598005BFB22462B4606460F46DDE90401FDF794
:1035A80019F8FDF729FA494680F00043404606938A
:1035B800FDF722FA80F0004132463B46079120464B
:1035C8002946FDF707F8FDF717FA80F0004307EEE4
:1035D800103AF0EE087A67EE276A9DED076A9DEDCE
:1035E800067ACDED2B6A27EE277A66EE277A8DEDDF
:1035F800297ACDED2A7A089329AB93E807000DF5CF
:10360800FA53C3F800A00DF5FA530433C3F800A029
:103618000DF5FA530833C3F800A00DF5FA538DE8F9
:1036280007000ECB5846FFF7A1FCDDED3C5ADBED59
:10363800014A9DED3D6A9DED3E7ADDED3F7ADBED79
:1036480000DA9DED3BAADDED38CA9DED39CADDED06
:103658003AAA9BED055A9BED04DADBED0DBADBEDDA
:10366800096ADBED0C9A9BED08BA9DED408A9BED4B
:10367800029ADBED068A9DED410ADDED420A9DEDD9
:10368800431ADDED442ADBED031A9DED453ADDEDE5
:10369800463A9BED072ACDF8B0A025EEA4FA64EED1
:1036A80086EA24EE87EA64EEA74AACEEADFA0DF599
:1036B8007D6303F57861EDEE8A4A5246EDEE8CEAB9
:1036C80065EE85FA26EE054AADEEAAEAF0EE64DA72
:1036D80067EE054A27EE855AECEE8DFAAAEE0D5AEA
:1036E800ACEE0D4AEAEE8D4AB0EE45DA25EEA65A62
:1036F80065EEAB5AACEE8B5AECEEA95AE8EE28FA16
:10370800F0EE65CA66EE265A26EE2B6AECEE0B5AE8
:10371800ACEE296AA9EE20EA8DED0E6A27EE266A3C
:1037280067EEA66A27EE2B7A67EEAB7AAAEE8B6A6B
:10373800EAEE0B6AAAEEA97AEAEE297A8DED0C6A0E
:103748008DED0F7A9BED0A6ACDED0D6AF0EE6EAA4B
:10375800DBED0E6ADDED0EEA8DED09EAB0EE6DBA2D
:10376800F0EE4DBADDED0DDA9DED0CDACDED0BFA8C
:10377800F0EE679AE9EE00AACDF8B4A0CDF8B8A0AB
:10378800A9EE01BACDF8BCA0CDF8C0A0B0EE4FAA02
:10379800A8EE09AACDF8C4A0CDF8C8A0A8EE065A8C
:1037A800CDF8CCA0CDF8D0A0E0EE065ACDF8D4A044
:1037B800CDF8D8A0A0EE86DACDF8DCA0E1EE06DAE6
:1037C8009DED0FFACDED04AAB0EE696AE8EE26CABF
:1037D800A0EE284AE0EEA84AA1EE266AE1EE28BA51
:1037E800E0EE26EAA0EEA6FA8DED0ABA9BED0B7A7A
:1037F800DBED0F7ADDED476ADDED048A9DED099A70
:10380800DDED0A9AB0EE4A8A12E000BFAFF30080FD
:103818000000000000C0724000000060FB21094069
:103828000000404017B7D13800009643DB0F4940ED
:103838009DED0BAAB0EE6CEAF0EE44AAB0EE64BAC5
:10384800B0EE45CAF0EE65CAF0EE46FAA2EEA18ADD
:10385800E1EE838AA1EEA39AE1EEA69AA2EE82AAED
:10386800E3EE02AAA3EE82BAE6EE82BAA2EE87CA15
:10387800A2EEA7EAE3EE07CAE3EE27EAA3EE87DAA9
:10388800E6EE87DAA3EEA7FAE6EEA7FA43F8102CDD
:1038980043F80C2C43F8082C43F8042C10338B42C3
:1038A800F4D10DF5FE530DF5FE5110331031002201
:1038B800803B01F5706143F8102C43F80C2C43F859
:1038C800082C43F8042C10338B42F4D10DF53B53EC
:1038D80010330025D84603F56F465C4625606560C1
:1038E800A560E56025616561A561E56125626562A0
:1038F800A562E56204F17C0001F000F9CC3444F8DB
:10390800485C44F8445C44F8405C44F83C5C44F847
:10391800385C44F8345C44F8305C44F82C5C44F877
:10392800285C44F8245C44F8205C44F81C5CB442ED
:10393800D4D10DF5FA522D4900240DF57C631046BB
:10394800B7EE004AD1ED014A91ED005AD1ED025A85
:10395800DC6024EEAB6A64EE8A6AA5EE296A10334D
:103968000C3124EEAA7AA5EEAD6A103264EE8B7A99
:103978003FEE866AE5EE086AC4EE063AA5EE287AB6
:10398800E5EE097AE5EE8C6AA5EEAC7AE5EE8D7A7D
:103998007EEE266A3EEE877A7FEE277A43ED034A6B
:1039A80003ED045A43ED025A66EEA36A27EE237A22
:1039B80067EEA37A834202ED016A42ED046A02EDE2
:1039C800037A42ED027ABDD10024DFF838909FEDEA
:1039D80008EADFED08DA9FED08DADFED08CADFED67
:1039E80008EA0494CDF8248043E000BF78840008F6
:1039F8000000A0420000F042000070420000804336
:103A08006666663F6C760008F0EE476AF7EE007A65
:103A1800F4EEE76AF1EE10FA75DDDDED306AF5EEE9
:103A2800C06AF1EE10FAD4BFB1EE666AB0EE666A0B
:103A3800F7EE007AB4EEE76AF1EE10FA40F3198275
:103A4800DDED347AF5EEC07AF1EE10FAD4BFF1EE7E
:103A5800675AF0EE675AB7EE006AF4EEC65AF1EE0E
:103A680010FA40F33182D44B09F10C09994500F062
:103A7800698159F804CCD9F800A0D9F804804FEA34
:103A88000C160DF5FA5333440FCB4FEA0A150DF512
:103A9800FA542C442CAF87E80F0094E80F000DF57A
:103AA800FA5E4FEA081430AFA64487E80F009EE894
:103AB8000F000DF57C673E443D443C4434AF87E835
:103AC8000F0096ED00CAD6ED01BA96ED02BAD5ED13
:103AD800008AD5ED01AAD5ED029A94ED009A9DEDE4
:103AE8002C7A94ED018A94ED02AAB5EEC07AF1EE33
:103AF80010FA89DCF1EE476AF7EE007AF4EEE76A2D
:103B0800F1EE10FA89DC9DED2D6AB5EEC06AF1EE92
:103B180010FAD4BFF1EE467AF0EE467AF7EE006A74
:103B2800F4EEE67AF1EE10FA3FF777AFDDED2E7A94
:103B3800F5EEC07AF1EE10FAD8BFF1EE677AF7EE3B
:103B4800006AF4EEE67AF1EE10FA3FF766AFDDEDC3
:103B5800306A9DED315ADDED347ADDED355ADFED11
:103B6800974A974BF893B0EE4E4AA7EE244AF9AB22
:103B780000209FED927A1860F0EE4D4AE6EE2D4A4D
:103B8800FAAB0421B0EE4E6AA6EE876A18600A46C0
:103B9800F0EE4D6AE5EE2D6AF9A8CDF828C09FED44
:103BA800875A8DED2C4AB0EE4E7AA7EE857AF0EE64
:103BB8004D7AE5EEAD7ACDED2D4A8DED306ACDED3D
:103BC800316A8DED347ACDED357A00F09BFF7D4B6F
:103BD800DDF828C003EBCC0C03EBCA0ADCED006A65
:103BE8009AED007A9CED015ADAED015A79EECB9AFA
:103BF8003AEE4BAA03EBC808B7EE00BA78EECC8AC7
:103C08007AEEEBAA39EE4C9AD8ED007A98ED016A73
:103C18007BEE666A3BEE477A2AEE684A66EEAC6A45
:103C280038EE6B8A7BEE677A69EE6A4A27EE2C7A61
:103C3800A9EE894A0DF531630DF5CC60C3ED006A34
:103C480067EEAC7AE8EE884A0DF6183383ED007A11
:103C58000DF53263C3ED007A68EE693A0DF26463DC
:103C680083ED004A25EE2C5A0DF5CD63C3ED004ACD
:103C7800EAEE8A3A0DF6143365EEAC5A83ED005A33
:103C880026EE2C6A0DF61C33C3ED005A0DF62433CC
:103C980083ED006AC0ED003AFFF7FCF807EE900AE2
:103CA8008BEE27BA0DF26463D3ED007A9DED076AB7
:103CB8000DF5CC6393ED007A0DF5CD63D3ED006A75
:103CC8006BEE277A2BEE077A66EE277A2BEE26BA6A
:103CD800DDED066AE6EE877A9DED087AE7EE0B7A67
:103CE800F5EEC07AF1EE10FA01DCF1EE677A9FED9D
:103CF800367AA7EEAE7AF0EE477AB7EE007A37EE6C
:103D0800877AB5EE407AF1EE10FA3FF4ACAE049C37
:103D18000DF53163CC20009317EE902AF8AB00FB29
:103D280004B02CA900F068FB234601332246B0F109
:103D3800FF3F18BF1A46204B049209F10C09994518
:103D48007FF497AE049CDDF82480002C5DD00DF53F
:103D580031610DF25C62002398ED067AD8ED027AA3
:103D6800D8ED0A6A42F8043F77EE277A013377EEF6
:103D7800A67AA34208F1CC08E1EC017AECD1012C37
:103D880043DD0DF614380DF5CC6C0DF531614FF0AF
:103D9800010EB8EC017AD1ED007A5CF804AFB4EE0C
:103DA800E77AF1EE10FA01F1040929D56246454691
:103DB8004846734611E000BF7C8400080000204399
:103DC80018900008A86E0008CDCCCC3D71ED017AA2
:103DD800B4EEE77AF1EE10FA08D550F8047D52F8FF
:103DE800046D45F8047D013B5660EFD10DF5CC62BA
:103DF80042F823A00DF5316202EB830383ED007ACC
:103E08000EF1010EA6454946C3D100274FF07E5951
:103E180058AB0DF2DE32F8A84FF4805143F8049BFA
:103E2800834222F8021FF9D1C4B10DF25C66002565
:103E38004FF0CC0801E0A54210D056F8040F08FB5B
:103E480000B00135436BBB42F5DA836BBB42F2DB52
:103E580058A9F8AA00F020F9A542EED13946002069
:103E6800F8AA0137A023FDF77DFC782FD0D1FFF702
:103E78004FBB9DED315AB5EEC05AF1EE10FAD4BFE2
:103E8800B1EE456AB0EE456AF7EE007AB4EEE76A3D
:103E9800F1EE10FA3FF7D4ADDDED327AF5EEC07AE7
:103EA800F1EE10FAD8BFF1EE677AB7EE006AF4EED9
:103EB800C67AF1EE10FA3FF7C3AD9DED2D6ADDED40
:103EC800347ADDED355A4AE6DDED355AF5EEC05A5D
:103ED800F1EE10FAD4BFB1EE655AB0EE655AB7EEFE
:103EE800006AB4EEC65AF1EE10FA3FF7BCAD9DED8C
:103EF800366AB5EEC06AF1EE10FAD8BFB1EE466A7E
:103F0800B7EE005AB4EEC56AF1EE10FA3FF7ABAD62
:103F18009DED2D6A9DED315A21E600BF5D4B0022D3
:103F28001A605A609A60DA601A615A619A61DA61B5
:103F38001A625A629A62DA621A635A639A63DA6395
:103F48001A645A649A64DA641A655A659A65DA6575
:103F58001A665A669A66DA661A675A679A67DA6755
:103F6800C3F88020C3F88420C3F88820C3F88C20C5
:103F7800C3F89020C3F89420C3F89820C3F89C2075
:103F8800C3F8A020C3F8A420C3F8A820C3F8AC2025
:103F9800C3F8B020C3F8B420C3F8B820C3F8BC20D5
:103FA800C3F8C020C3F8C420C3F8C820C3F8CC2085
:103FB800C3F8D020C3F8D420C3F8D820C3F8DC2035
:103FC800C3F8E020C3F8E420C3F8E820C3F8EC20E5
:103FD800C3F8F020C3F8F420C3F8F820C3F8FC2095
:103FE800C3F80021C3F80421C3F80821C3F80C2141
:103FF800C3F81021C3F81421C3F81821C3F81C21F1
:10400800C3F82021C3F82421C3F82821C3F82C21A0
:10401800C3F83021C3F83421C3F83821C3F83C2150
:10402800C3F84021C3F84421C3F84821C3F84C2100
:10403800C3F85021C3F85421C3F85821C3F85C21B0
:10404800C3F86021C3F86421C3F86821C3F86C2160
:10405800C3F87021C3F87421C3F87821C3F87C2110
:10406800C3F88021C3F88421C3F88821C3F88C21C0
:10407800C3F89021C3F89421C3F89821C3F89C2170
:10408800C3F8A021C3F8A421C3F8A821C3F8AC2120
:10409800704700BF4401002070B4D0ED176AD0ED1E
:1040A800187AF4EEE76AF1EE10FA83B00346C0F22C
:1040B80051819FEDCE4AD0ED193A90ED2D6A90EDE1
:1040C8001A7AD0ED2E5A90ED235AD0ED244A90ED6D
:1040D800212A90ED221A77EEC47A36EE844AFDEE54
:1040E800E77AB0EE633A17EE904AFDEEC47AF0EE46
:1040F800462A17EE900A844200F05181051B04EE0F
:10410800105AB8EEC44AF7EE001AC1EE847A33EEBC
:10411800473A31EE644A72EEE52A32EE452A23EE3A
:10412800273A62EEA72A27EE822A27EE844AF6EE7D
:10413800007A63EE270A22EEA71A62EE271A64EEC7
:10414800277A9F2C00F39580002C37EE607A75EE65
:10415800C15A35EE615A74EEE74AC0F2338100283D
:10416800C0F287809F28A8BF9F20844280F2818068
:10417800DFED9F0A02EB4402B7EE001A01EB84045C
:10418800B1EE040A01EB800137EE037AF4EC017A10
:10419800B4EEE77AF1EE10FA75EEA25A35EE025A4D
:1041A80074EE844A5BD5B5EEC07AF1EE10FA56DDAE
:1041B800C1EE257A9E6F71EE471A67EEA46A67EE24
:1041C800857AFDEEE66AFDEEE77ACDED016A9DF8A7
:1041D800040017EE905A000250FA85F0C0F57F40AF
:1041E800FF30F4EEE01A36F81000C51206EE905AC9
:1041F800F1EE10FAC0F3451500F01F00F7EE003A93
:1042080006EE105A48BF61EE803A07EE900AD3EDE9
:104218000C1AC3ED1D3AB8EEC66A63EEA13AF8EE81
:10422800E77A26EE236AF8EEE66A67EEA37ABDEE31
:10423800C66AFDEEE77A66EEA36A16EE105A17EE26
:10424800900AFDEEE67A6E0117EE905A46EAC02013
:104258002843001235431070557004ED017A8C42E2
:1042680002F1020290D1D3ED176AD3ED193A93ED1A
:104278002D6AD96E5D6B93ED057A4A1907EE902A7F
:10428800F8EEE77AF4EEC77AF1EE10FAC0F2988009
:1042980001221A670131D96603EBC204D4ED0F2A53
:1042A80093ED213A93ED224AD3ED184A93ED1A5A29
:1042B800D3ED2E5A93ED237A986BD3ED247A76EECC
:1042C800A26A03EB0216C3ED176AD4ED136A73EE04
:1042D800A63A5200C3ED193AD4ED2F6A36EE266A93
:1042E800013283ED2D6AD6ED256A73EE266A03EB5B
:1042F8008204C3ED216AD6ED266A74EE266A03EBC2
:10430800C202C3ED226AD4ED0F6A74EEA66A29448C
:10431800C3ED186AD4ED136A75EE266A8142C3EDBF
:104328001A6AD4ED2F6A75EEA66AD8BF0020C3EDCD
:104338002E6AD2ED256A37EE267AC8BF012083EDB2
:10434800237A92ED267A77EE877AC3ED247A03B042
:1043580070BC70479FED257AD0ED193A90ED2D6A23
:1043680090ED1A3AD0ED2E2A90ED215AD0ED224A3E
:1043780090ED232A90ED241A77EE877A36EEC77AE5
:10438800FDEEE77AF0EE465A17EE900AFDEEC77A90
:10439800B0EE637A17EE904A84427FF4AFAEDFED59
:1043A800157AF0EE671AB0EE671AF0EE670AB0EE0B
:1043B800674AB0EE672AF0EE672AB0EE673AC0E6C1
:1043C8001A6F67E707EE904AF8EEE71A0028F1EE51
:1043D800617A4FF00004E2EEE15AA7EE837AA7EE85
:1043E800825AE7EE844ABFF6BDAE42E70AD7233CBD
:1043F800CDCC4C3E000000002DE9F0472DED108B90
:10440800044653F8040BA06786B00D4604F17C00FF
:104418001946DDF87880164600F078FB95ED005ACD
:10442800D5ED015A95ED046AD5ED056A95ED087A42
:10443800D5ED097A2663F6EE004A35EE245A75EE74
:10444800A45ABDEEC55AFDEEE55AB8EEC55AF8EEC7
:10445800E55A0023E366236736EE246A85ED005AA1
:10446800C5ED015A76EEA46A37EE247A77EEA47A7F
:1044780095E80F00BDEEC66AFDEEE66ABDEEC77AA6
:10448800FDEEE77AB8EEC66AF8EEE66AB8EEC77AE5
:10449800F8EEE77A85ED046AC5ED056A85ED087AD8
:1044A800C5ED097A84E80F0094ED037AD8ED015A36
:1044B80098ED005AF7EE007A87EE877A05F1100337
:1044C80004F11006203504F1200784ED037A0FCBA0
:1044D80067EE255A25EE075ACDED015A8DED005AA3
:1044E80086E80F0094ED077AD8ED026AD8ED034A02
:1044F80087EE877A84ED077A95E80F0087E80F0042
:10450800D4ED0B2AD8ED053A98ED044A94ED016AEA
:1045180094ED053AC7EEA27A67EE244A67EEA33A0D
:1045280026EE877AB4EEC36A64EE276AF1EE10FAD3
:10453800CDED034A8DED027AC4ED0B7ACDED053A47
:10454800CDED046A00F37E81F0EE466AB0EE457A5E
:10455800B0EE654AB0EE436AD4ED097AF4EEE67A35
:10456800F1EE10FA40F1698197E80F00D4F800C025
:10457800D4F808E0E568DDED048A9DED058AC4ED10
:10458800096A84E80F00F0EE667AC4F820C0C4F81F
:1045980028E0E562CDED008A8DED047A8DED018A83
:1045A8008DED054AB4EEE76AF1EE10FA1DDD97E8E5
:1045B8000F00D4F81080D4F818C0D4F81CE0DDF847
:1045C80008A0DDF81090039F059DCDF810A086E89F
:1045D8000F00CDF80890C4F82080C4F828C0C4F8AB
:1045E8002CE084ED096A059703952046FEF71CFE2A
:1045F80060632046FEF720FE94ED01FA94ED057AFB
:10460800D4ED002A94ED025AD4ED034A7728C8BFA6
:104618007723B4EE47FAD4BFA063A363F1EE10FA90
:1046280040F02D81012394ED04EA94ED06AAD4ED1F
:1046380007AADDED02BA9DED03BA2367636B762BFB
:1046480000F35382A26B002A40F34F82002BC0F282
:10465800B981D4ED097AD4ED049AD4ED086AB0EEA4
:1046680048CAF0EE68CAF0EE64DAB0EE45DAF0EE69
:1046780062EAB4EE677AF1EE10FA40F00B81DFEDF2
:10468800EF5AB4EE47FAF1EE10FAF0EE651AB0EE12
:10469800652A00F01F8137EE4F4AB7EE006A86EEB2
:1046A800046A94ED060A94ED074A39EEE29A30EE70
:1046B800450A34EE644AB4EE67FAF1EE10FA29EED0
:1046C800069A20EE060A24EE064A00F00F8137EE1D
:1046D800CF6AB7EE001A81EE061AD4ED0A3A94EDC5
:1046E8000B6A36EEE23A73EEC53A36EE646AB4EE19
:1046F800677AF1EE10FA23EE013A63EE813A26EE7C
:10470800016A00F0FF8037EE675AF7EE004A84EE40
:10471800855A9DED021ADDED040ADDED034ADDED53
:1047280005FA71EE600A74EEEF4AB4EE47FAF1EE5C
:1047380010FA60EE850A65EE244A00F0ED8037EE47
:104748004F5AF7EE00FACFEE85FA9DED021A9DED6D
:10475800035A31EE681A35EE485AB4EE67FAF1EEAC
:1047680010FA2FEE811A2FEE855A00F0DF8072EED4
:10477800E66A37EE4F7A7FEE67FA26EE877A77EEAB
:10478800CF7AC7EE2F6AB7EE00FACFEE277A9DED03
:10479800047ADDED05FA72EEA66A77EE688A3FEED6
:1047A800C88AF4EEE96AF1EE10FA67EEA88A67EEB5
:1047B800887A40F2C580C4ED17EA84ED18EA84EDE2
:1047C80019DA84ED1AAAC4ED2DDAC4ED2EAAC4EDC7
:1047D80021CA84ED22CAC4ED23BA84ED24BA84ED3B
:1047E800113A84ED122A84ED0F3A84ED109AC4ED43
:1047F800153AC4ED161AC4ED133A84ED140A84ED83
:10480800316AC4ED325A84ED2F6A84ED304AC4ED22
:10481800298AC4ED2A7AC4ED2B0AC4ED2C4AC4EDCA
:10482800258AC4ED267A84ED271A84ED285A0020BB
:1048380006B0BDEC108BBDE8F087B0EE448AF0EE10
:10484800478AAFE696E80F00D4F800C0D4F808E02D
:10485800E5688DED007A84E80F00B0EE644AD4ED87
:10486800016ACDED014A8DED025ACDED035A84ED72
:10487800056AC4F810C0C4F818E0E5616CE6B0EE4B
:1048880048BAF0EE68BAF0EE64AAB0EE45AAB0EE07
:1048980062EAD3E677EE675AB7EE006A86EE256AD3
:1048A80094ED064AD4ED0A1AD4ED075AD4ED0B3A22
:1048B80039EEE62A74EE611A75EEE35AB4EE47FA59
:1048C800F1EE10FA22EE062A61EE861A65EE865A95
:1048D8007FF4E1AE9FED594AB4EE67FAF1EE10FAB3
:1048E800B0EE440AB0EE449A7FF4F1AE9FED536AFD
:1048F800B4EE677AF1EE10FAF0EE463AB0EE463AC8
:104908007FF401AFDFED4D4AB4EE47FAF1EE10FA4D
:10491800F0EE640A7FF413AF9FED485AB4EE67FADD
:10492800F1EE10FAB0EE451A7FF421AFDFED438ABD
:10493800F4EEE96AF1EE10FAF0EE687A3FF63BAF72
:10494800002084ED17EAC4ED18EA84ED19AA84ED75
:104958001ADAC4ED2DAAC4ED2EDAC4ED21BA84ED1D
:1049680022BAC4ED23CA84ED24CA84ED112A84ED49
:10497800123A84ED0F9A84ED103AC4ED151AC4ED7D
:10498800163A84ED130AC4ED143AC4ED315A84ED95
:10499800326A84ED2F4A84ED306AC4ED290AC4EDE9
:1049A8002A4AC4ED2B8AC4ED2C7A84ED251A84EDAD
:1049B800265AC4ED278AC4ED287A06B0BDEC108BC0
:1049C800BDE8F087B5EEC07A0023F1EE10FA636314
:1049D80036DBB4EE47FAF1EE10FA5DD1D4ED097A80
:1049E800D4ED049AD4ED086AB4EE67FAF1EE10FA41
:1049F8003FF435AE3FEE676A94ED0ADAD4ED0BDA90
:104A0800DDED04CA9DED05CA87EE866A36EEE22A18
:104A18003DEE453A7DEEE43A3CEEE84A7CEE485AF3
:104A2800F0EE66EAE2EE06EAA3EE06DAE3EE86DAEE
:104A3800E6EE04CAA6EE25CA1BE600BF0000000089
:104A4800D4ED097AB4EE677AF1EE10FA50D0D4EDCD
:104A5800086AD4ED049A94ED0AAA94ED063AD4EDC6
:104A68000BAAD4ED073ADDED04BA9DED024A9DED9F
:104A780005BADDED035A37EE676A36EEE92A87EEA6
:104A8800866A3AEE433A7AEEE33A3BEEC44A7BEE64
:104A9800655AB0EE66EA1DE03FEE476AD4ED049A27
:104AA80094ED06AAD4ED07AADDED02BA9DED03BA8E
:104AB800D4ED097AD4ED086A87EE066A39EEE22A5F
:104AC8003AEE453A7AEEE43A3BEEE84A7BEE485A4B
:104AD800B0EE69EAA2EE06EAA3EE06AAE3EE86AA1B
:104AE800E6EE04BAA6EE25BA7EE74FF0FF309FE661
:104AF800D4ED049AD4ED086A76E700BF002202607C
:104B08004260704780E80600704700BF10B40C6828
:104B18004A68426004605DF8044B704730B5ADF5F3
:104B2800217DFCF763FBFCF761FB002404F0010026
:104B380085002B189B019A1E03F59F730DEB03014B
:104B48006A44A3B222F8023F01338A429BB2F9D1E8
:104B58002A1804F07F010DEB82120020A0230134F3
:104B6800FCF700FEFEF778FCE0E700BFDFF834D082
:104B7800002103E00C4B5B58435004310B480C4BAD
:104B880042189A42F6D30B4A02E0002342F8043B4B
:104B9800094B9A42F9D3FDF7AFF802F039F9FDF75E
:104BA80007F8704700000220D8950208000000208E
:104BB8006C0000206C000020F4020020FEE70000DA
:104BC80030B51F4A21F00043934287B01BDD1D4AD0
:104BD800934205DD02460B46FBF748FB07B030BDA4
:104BE80002AA00F0F1F800F00303012BDDE902014D
:104BF80016D0022B0DD0EBB10124DDE9042300947B
:104C080001F0F6F9EAE70022002300F0C9FC07B03A
:104C180030BDDDE9042300F0C3FC01F10041DDE70C
:104C2800DDE90445009322462B4601F0E1F901F144
:104C38000041D3E7DDE9042300F0B2FCCEE700BF72
:104C4800FB21E93FFFFFEF7F30B5224A21F0004307
:104C5800934287B01BDD204A934205DD02460B468E
:104C6800FBF704FB07B030BD02AA00F0ADF800F076
:104C7800030001281ED0022811D010B3DDE902017B
:104C8800DDE9042300F08CFC01F10041EAE7002390
:104C980000930022002301F0ABF907B030BD0124D6
:104CA800DDE90201DDE90423009401F0A1F901F135
:104CB8000041D7E7DDE90201DDE9042300F070FCDB
:104CC800D0E70124DDE90201DDE90423009401F0C5
:104CD8008FF9C7E7FB21E93FFFFFEF7F00B5124AD5
:104CE80020F00043934283B0014616DDB3F1FF4F35
:104CF80004DBFBF785FF03B05DF804FB694600F0B1
:104D080087FA00F001004200C2F1010200980199FF
:104D180001F05EFD03B05DF804FB0021012201F003
:104D280057FD03B05DF804FBDA0F493F70B5244D19
:104D38008AB0064600F0DEFB95F9003001330446E0
:104D480008D0304601F0DEFF20B130460021FCF7E4
:104D5800FFF910B920460AB070BD0123194A009323
:104D68003046002301920893FBF7E0FB2C78CDE94D
:104D78000401CDE902017CB900220023CDE9062314
:104D8800684601F0EDFE88B1089BA3B9DDE906018C
:104D9800FBF732FE0AB070BD0020002102460B4628
:104DA800FBF742FD022CCDE90601E9D102F02AF811
:104DB80021230360E8E702F025F8089B0360E5E794
:104DC80004000020189002082DE9F04F964E21F0BB
:104DD800004BB3458FB00C4640F381809246934A0E
:104DE800934526DC002986A3D3E9002340F3A88154
:104DF800FBF73CFA8E4B9B4504460D4600F0848039
:104E080081A3D3E90023FBF731FA02460B46CAE92E
:104E1800002320462946FBF729FA7BA3D3E9002380
:104E2800FBF724FA0125CAE9020128460FB0BDE8BC
:104E3800F08F804A934540F384807F4A934559DC3C
:104E48004FEA2B55A5F21645ABEB055739460646F2
:104E5800FBF7AAFEFBF758FB8046894602460B463D
:104E680030463946CDE90889FBF700FA0022734B32
:104E7800FBF7B0FB0F460646FBF796FEFBF744FB35
:104E880002460B468046894630463946CDE90A89AE
:104E9800FBF7ECF90022694BFBF79CFB002200238F
:104EA800CDE90C01FBF74EFE002800F075810023C8
:104EB800404649460022FBF745FE002814BF01235F
:104EC800022302225E49009201912A4608A851460F
:104ED80000F08AFC002CC0F25181054606E0C2E9C8
:104EE800000100250024C2E90245002528460FB02C
:104EF800BDE8F08F02460B46FBF7B8F90025CAE972
:104F08000201CAE90001F1E741A3D3E90023FBF755
:104F1800ADF941A3D3E900230D460446FBF7A6F9F2
:104F280002460B46CAE9002329462046FBF79EF9AC
:104F380039A3D3E90023FBF799F90125CAE902014E
:104F4800D4E701F07DFD36A3D3E9002306460F46DA
:104F5800FBF740FB00223B4BFBF78AF9FBF724FEEB
:104F68000546FBF7D1FA26A3D3E90023CDE90401CE
:104F7800FBF730FB02460B4630463946FBF776F91D
:104F880021A3D3E9002380468946DDE90401FBF724
:104F980021FB1F2DCDE902014046494656DC2A4B2C
:104FA8006A1E53F822305B4550D0DDE90223FBF737
:104FB8005DF902460B46CAE9002307460E463A4603
:104FC800334640464946FBF751F9DDE90223FBF732
:104FD8004DF9002C02460B46CAE9022386DA06F18F
:104FE800004601F10041CAF80070CAF80460CAF826
:104FF8000C10CAF808006D4278E700BFAFF30080D4
:1050080000004054FB21F93F3163621A61B4D03D7E
:105018000000601A61B4D03D7370032E8A19A33B57
:1050280083C8C96D305FE43FFB21E93F7BD902406B
:10503800FB21F93FFB213941FFFFEF7F0000704161
:10504800A09002080000E03F20900208DDE902235A
:10505800FBF70CF90E464FEA2B5BC6F30A53C3EB7A
:105068000B03102B0746CAE90001A8DD5CA3D3E9AE
:105078000023DDE90401FBF7ADFA06460F46324688
:105088003B4640464946FBF7F1F8CDE90601DDE924
:10509800062340464946FBF7E9F832463B46FBF70C
:1050A800E5F851A3D3E9002306460F46DDE90401DC
:1050B800FBF790FA32463B46FBF7D8F8CDE90201F8
:1050C800DDE90223DDE90601FBF7D0F80E46C1F35E
:1050D8000A51C1EB0B0B02463346BBF1310F0746B1
:1050E800CAE9002378DD42A3D3E90023DDE90401FE
:1050F800FBF770FA06460F4632463B46DDE90601E5
:10510800FBF7B4F88046894642464B46DDE906017E
:10511800FBF7ACF832463B46FBF7A8F836A3D3E9D1
:10512800002306460F46DDE90401FBF753FA324631
:105138003B46FBF79BF8CDE902014046494634E778
:10514800FBF796F8304B9B4504460D4626D02CA31A
:10515800D3E90023FBF78CF802460B46CAE9002383
:1051680029462046FBF782F825A3D3E90023FBF75D
:105178007FF84FF0FF35CAE90201B7E6DAF80420F4
:10518800DAF80C3002F1004203F100434542CAF854
:105198000420CAF80C30A9E6032392E610A3D3E949
:1051A8000023FBF765F810A3D3E900230D46044656
:1051B800FBF75EF802460B46CAE90023294620465B
:1051C800FBF754F808A3D3E90023FBF751F84FF095
:1051D800FF35CAE9020189E6DDE90689EFE600BF85
:1051E8000000601A61B4D03D7370032E8A19A33B86
:1051F8000000002E8A19A33BC14920259A837B39D8
:105208003163621A61B4D03DFB21F93FAFF30080EE
:105218002DE9F04FAA4A20F00044944289B007468D
:105228000D4664DDA74A94421CDC0028A64940F3D9
:10523800EC80FBF7E5FCA54B24F00F049C420646E6
:1052480064D0A349FBF7DCFC014628603046FBF735
:10525800D7FC9F49FBF7D4FC01236860184609B0C6
:10526800BDE8F08F9B4A944262DDB4F1FF4F46DA05
:10527800E615863EA4EBC6542046FBF791FFFBF7E4
:1052880075FD0346014620460593FBF7B9FC4FF030
:105298008741FBF7BFFD8046FBF782FFFBF766FD02
:1052A8000146044640460694FBF7AAFC4FF08741A6
:1052B800FBF7B0FD00210790FBF740FF002800F046
:1052C800C58020460021FBF739FF002814BF0123C1
:1052D80002230222804900920191324605A82946FC
:1052E80000F03EFF002FC0F2A780034603E0002233
:1052F800286000234A60184609B0BDE8F08F0146CF
:10530800FBF77EFC002368602860F4E77349FBF72D
:1053180077FC73490446FBF773FC01462860204676
:10532800FBF76EFC6E49FBF76BFC01236860E2E754
:1053380001F09EFC6B498046FBF76CFD4FF07C51F9
:10534800FBF760FCFBF72CFF0646FBF70FFD5E49F9
:105358008346FBF75FFD01464046FBF751FC5C497D
:1053680081465846FBF756FD1F2E8246484619DCF3
:105378005D4A711E24F0FF0352F82120934211D098
:105388005146FBF73DFC8046C5F80080414648463B
:10539800FBF736FC5146FBF733FC002F686057DB00
:1053A8003346A8E75146FBF72BFCE215C0F3C75379
:1053B800D31A082B8046E7DD484903925846FBF785
:1053C80029FD804641464846FBF71AFC044621461B
:1053D8004846FBF715FC4146FBF712FC404980465E
:1053E8005846FBF717FD4146FBF70AFC8246514633
:1053F8002046FBF705FC039AC0F3C753D21A192AB3
:10540800804641DC2860A146C0E7FBF7FBFB2F4B39
:1054180024F00F049C42064623D02D49FBF7F2FBEB
:10542800014628603046FBF7EBFB2949FBF7EAFB0E
:105438004FF0FF3368605EE795E80C0002F1004129
:1054480003F10042296043426A6054E7032340E7BE
:1054580008F1004800F10040C5F800806860734218
:1054680049E71E49FBF7CEFB1D490446FBF7CAFB7B
:10547800014628602046FBF7C3FB1949FBF7C2FB2E
:105488004FF0FF33686036E718495846FBF7C2FC0F
:10549800804641462046FBF7B3FB814649462046F5
:1054A800FBF7AEFB4146FBF7ABFB114904465846F8
:1054B800FBF7B0FC2146FBF7A3FB824648465FE7B3
:1054C800D80F493FE3CB1640800FC93FD00FC93FE3
:1054D80043443537800F4943289202080044353742
:1054E80008A3852E84F9223FA891020800A3852EDF
:1054F80032318D2420F00042B2F1FF4F70B50346DF
:1055080004462DD25AB300283DDBB2F5000F4FEA0E
:10551800E0502CD37F38C3F31603C20743F40003CB
:1055280048BF5B00002640105B00314619244FF04D
:1055380080728D189D4202DC5B1BA9181644013C41
:105548004FEA43034FEA5202F3D113B106F00103C5
:105558001E44761006F17C5606EBC05070BD70BD37
:105568000146FBF757FC2146FBF74CFB70BD14F4D2
:1055780000020FD15B00190202F10102FAD5C2F153
:1055880001021044C6E70146FBF73AFB0146FBF768
:10559800F5FC70BD01221044BCE700BF000000000C
:1055A8002DE9F04F21F00047B7F1795F85B00C463F
:1055B80092469B4605466BDAFBF7F6FA002800F0A0
:1055C800E8802A46234628462146FBF703F874A3B9
:1055D800D3E9002380468946FAF7FCFF72A3D3E992
:1055E8000023FAF745FE42464B46FAF7F3FF70A34D
:1055F800D3E90023FAF73AFE42464B46FAF7EAFFA8
:105608006DA3D3E90023FAF733FE42464B46FAF777
:10561800E1FF6BA3D3E90023FAF728FE42464B4685
:10562800FAF7D8FF68A3D3E90023FAF721FE424628
:105638004B46FAF7CFFFCDE9000140464946002224
:10564800634BFAF7C7FFDDE9002306460F464046DD
:105658004946FAF7BFFF5246804689465B462846C8
:105668002146FAF7B7FF02460B4640464946FAF785
:10567800FDFD02460B4630463946FAF7F7FD02466D
:105688000B4600205349FAF7F1FD05B0BDE8F08F4D
:1056980002460B46FAF79EFF41A3D3E90023804652
:1056A8008946FAF797FF40A3D3E90023FAF7E0FD0C
:1056B80042464B46FAF78EFF3DA3D3E90023FAF79B
:1056C800D5FD42464B46FAF785FF3BA3D3E90023B5
:1056D800FAF7CEFD42464B46FAF77CFF38A3D3E9EA
:1056E8000023FAF7C3FD42464B46FAF773FF36A389
:1056F800D3E90023FAF7BCFD4B464246FAF76AFFA6
:10570800354B9F42CDE9000197DD344B9F424FF066
:10571800000238DCA7F5001300202E4916461F4664
:10572800FAF7A4FDCDE90201404649460022284B7C
:10573800FAF750FF32463B46FAF798FDDDE90023B9
:1057480006460F4640464946FAF744FF5246804609
:1057580089465B4628462146FAF73CFF02460B4637
:1057680040464946FAF782FD02460B46304639461E
:10577800FAF77CFD02460B46DDE90201FAF776FDF1
:1057880005B0BDE8F08F164B164FCDE90223002671
:10579800CAE71049002005B0BDE8F08FAFF30080DC
:1057A800D43888BEE9FAA8BDC4B1B4BD9EEE213E86
:1057B800AD529C804F7E923E9015CB19A001FA3EC7
:1057C8007751C1166CC1563F4C5555555555A53F97
:1057D8000000E03F0000F03F3233D33F0000E93FD4
:1057E8000000E73F0000D23F2DE9F04FADF51D7DE9
:1057F8007B4CA69E7B4D54F8264009942646D41E21
:1058080085FB0475E417C4EBA50424EAE4741D467B
:105818000C93E34303EB4303013D02EBC3030893FB
:105828002B460D940395651B9C1904900A9116D478
:105838002C44013422AEA79F08E057F82500FAF758
:1058480063FE0135A542E6E9020108D0002DF4DA2D
:10585800013500200021A542E6E90201F6D1099BA5
:10586800002B31DB099A0C9B74A901EBC20BC3EB2B
:105878004373039A24A9DB0001EBC20800930DF5DA
:10588800E479039B002BC0F29981049BA3F1080AD9
:10589800009B444608EB030500260027FAE902238B
:1058A80074E80201FAF796FE02460B46304639467E
:1058B800FAF7DEFCAC4206460F46EFD1E9E902678B
:1058C800D94508F10808DCD1099901F18043013B69
:1058D8009B001A1D10A8024403440F920E938B4696
:1058E8004FEACB039CA91A460693BBF1000F0B4461
:1058F80053E9284528DD0DF5E87A0AEB02060FAFD3
:105908000022394B20462946FAF764FEFBF74CF98A
:10591800FAF7FAFD0022354B80468946FAF75AFE17
:1059280002460B4620462946FAF7A0FCFBF73CF94D
:1059380076E9022347F8040F49464046FAF798FCEF
:10594800564504460D46DBD1DDF820902046294611
:105958004A4601F009F900224FF07F5304460D46EC
:10596800FAF738FE01F070F80022214BFAF732FE00
:1059780002460B4620462946FAF778FC04460D46AF
:10598800FBF712F98046FAF7BFFD02460B462046A0
:105998002946FAF76BFC4C46002C06460F4640F3A6
:1059A800F3800BF1FF3110ABC9F1180253F8213025
:1059B80043FA02F000FA02F510AA5D1BC9F11703B9
:1059C80042F8215080441D41002D3EDDBBF1000FFF
:1059D80008F1010840F38A82002214460FA911E059
:1059E80040950208ABAAAA2A0000703E0000704148
:1059F80000002040C3F180700BB10860012401321F
:105A080093450DDD51F8043F002CF3D0C3F1FF138B
:105A1800013203F57F4393450B604FF00104F1DC3D
:105A2800089B002B0EDD012B00F0B680022B09D15C
:105A38000BF1FF3210AB10A953F82230C3F3150352
:105A480041F82230022D00F0868030463946002287
:105A58000023FBF777F8002800F0CC80099B0BF1B6
:105A6800FF3A53450DDC10AB0F9803EB8B03002274
:105A780053F8041D834242EA0102F9D1002A40F09A
:105A88001B82099B10AA013B52F82330002B40F0DF
:105A98002B820E9A012352F8041D01330029FAD0F3
:105AA8005B441A460B930BF1010393424DDC0D9AAC
:105AB80003EB02090B9A0C9B09F180495B44CBEB81
:105AC800020BA79A09F1FF3902EB890200924FEA0B
